:1000000027C1000056C1000054C1000052C10000C9
:1000100050C100004EC100004CC100004AC10000A8
:1000200048C1000046C1000044C1000042C10000B8
:1000300040C100003EC100003CC100003AC10000C8
:1000400038C1000036C1000034C1000032C10000D8
:1000500030C100002EC100002CC100000C94B01073
:1000600028C100000C94FB140C94311522C100002F
:1000700020C100001EC100001CC100001AC1000008
:1000800018C1000016C1000014C1000012C1000018
:1000900010C100000EC100000CC100000AC1000028
:1000A00008C1000006C1000004C1000002C1000038
:1000B00000C10000FEC00000FCC00000FAC000004B
:1000C000F8C00000F6C00000F4C00000F2C000005C
:1000D000F0C00000EEC00000ECC00000EAC000006C
:1000E000E8C00000031208120D12171221129A1212
:1000F0002B1233123B1245124F1259126812721210
:100100009A127C1286129012BB12BE12AD12B1125C
:10011000B712F512C212C612CC12D012D412DA12D1
:10012000DE12E212F512E812EC12F01200000A0BD5
:1001300002090C0D0E080703040100000000000076
:1001400000000000000000000000000000000000AF
:10015000000000000000000012111000000000006C
:10016000000000000000000000000000000000008F
:1001700000000102102020080810204010204080BC
:10018000020102010804020101020408102040805B
:1001900080402010080402018004020180402010E9
:1001A0000804020108040201010204081020408032
:1001B0000102040810204080050505050705080810
:1001C0000808020202020A0A0808040404040101E1
:1001D00001010101010103030303030303030407F6
:1001E00007070C0C0C0C0C0C0C0C0202020206068D
:1001F0000606060606060B0B0B0B0B0B0B0B000083
:1002000020002300260029002C002F0032000001CE
:10021000000003010601090100002200250028005A
:100220002B002E00310034000201000005010801FE
:100230000B0100002100240027002A002D003000BF
:10024000330001010000040107010A011F0A6315C0
:1002500011241FBECFEFD1E2DEBFCDBF00E00CBF47
:1002600014E0A0E0B2E0E2E4F4E300E00BBF02C07F
:1002700007900D92AC38B107D9F725E0ACE8B4E0AF
:1002800001C01D92AD3DB207E1F712E0C0E5D2E03A
:1002900000E006C022970109FE010BBF0E94A517CE
:1002A000CC34D10780E00807A9F70E94C6160C9449
:1002B0001F1AA6CE2F923F924F925F926F927F921B
:1002C0008F929F92AF92BF92CF92DF92EF92FF9266
:1002D0000F931F93CF93DF9300D01F92CDB7DEB75C
:1002E00026E040E855E260E070E08CE395E00E9493
:1002F0009B1420E044E064E18BE195E00E94E60A73
:1003000060E0809120020E94F6128AE1682E82E06D
:10031000782E61E0F30180810E94F61298E1892E27
:1003200092E0992E61E0F40180810E94F61226E1AC
:10033000A22E22E0B22E61E0F50180810E94F61229
:1003400034E1C32E32E0D32E61E0F60180810E94B9
:10035000F61242E1E42E42E0F42E61E0F7018081E2
:100360000E94F61200E112E061E0F80180810E9433
:10037000F61261E0EEE0F2E080810E94F6125CE0AD
:10038000452E52E0552E61E0F20180810E94F61266
:100390006AE0262E62E0362E61E0F10180810E9443
:1003A000F61228E032E061E0F901808129833A8386
:1003B0000E94F61246E052E061E0FA0180814B8330
:1003C0005C830E94F61261E0F30180810E942F138A
:1003D00061E0F40180810E942F1361E0F5018081CA
:1003E0000E942F1361E0F60180810E942F1361E0CB
:1003F000F70180810E942F1361E0F80180810E9443
:100400002F1361E0EEE0F2E080810E942F1361E0A3
:10041000F20180810E942F1361E0F10180810E942E
:100420002F1361E029813A81F90180810E942F1305
:1004300061E04B815C81FA0180810E942F1340E0D2
:1004400060E08BE195E00E94CE0A61E472E08BE10E
:1004500095E00E94F21541E060E08BE195E00E949A
:10046000CE0A6CE472E08BE195E00E94F21542E066
:1004700060E08BE195E00E94CE0A6BE572E08BE1D3
:1004800095E00E94F21543E060E08BE195E00E9468
:10049000CE0A60E772E08BE195E00E94F21568EC0D
:1004A00070E080E090E00F900F900F900F90DF9140
:1004B000CF911F910F91FF90EF90DF90CF90BF9061
:1004C000AF909F908F907F906F905F904F903F90F4
:1004D0002F900C9429113F924F925F926F927F92CE
:1004E0008F929F92AF92BF92CF92DF92EF92FF9244
:1004F0000F931F93CF93DF9300D000D0CDB7DEB71B
:100500008CEA94E00E946F0E882391F0813319F4F5
:1005100081E090E005C0823309F027C782E090E0D7
:100520009093AB048093AA048BE195E00E94C90AE2
:1005300062E370E080E090E00E9429118091AA04BB
:100540009091AB04892B81F540E060E08BE195E070
:100550000E94CE0A61E472E08BE195E00E94F21500
:1005600041E060E08BE195E00E94CE0A6CE472E02D
:100570008BE195E00E94F21542E060E08BE195E0AE
:100580000E94CE0A6BE572E08BE195E00E94F215C5
:1005900043E060E08BE195E00E94CE0A60E772E004
:1005A0008BE195E00E94F21504E6F02E8091AA04FA
:1005B0009091AB04019709F0A0C18CEA94E00E94ED
:1005C0006F0E882349F0823439F41092AB041092F4
:1005D000AA048BE195E0DDD7E0912602F091270295
:1005E0000190F081E02D00E010E020EA34E041EAE3
:1005F00054E066E170E086E292E01995E091240211
:10060000F09125020190F081E02D2EE934E04FE9D0
:1006100054E067E170E084E292E01995E0912202F3
:10062000F09123020190F081E02D2CE934E04DE9B6
:1006300054E068E170E082E292E0199580E00E9467
:10064000BB119C01F29EC001F39E900D112497FFF7
:1006500002C081509C4F892F990F990B85958595E4
:1006600091958195910988599F4F9093A904809302
:10067000A80481E00E94BB119C01F29EC001F39E80
:10068000900D112497FF02C081509C4F892F990F24
:10069000990B8595859591958195910988599F4FDD
:1006A0009093A7048093A60482E00E94BB119C0152
:1006B000F29EC001F39E900D112497FF02C081505D
:1006C0009C4F892F990F990B8595859591958195CB
:1006D00091098C599F4F9093A5048093A40483E0C3
:1006E0000E94BB119C01F29EC001F39E900D11244B
:1006F00097FF02C081509C4F892F990F990B8595C8
:1007000085959195819591098C599F4F9093A3045C
:100710008093A20440E060E08BE195E03FD76FE773
:1007200072E08BE195E00E94F21541E060E08BE120
:1007300095E034D764E972E08BE195E00E94F21510
:1007400042E060E08BE195E029D769EA72E08BE155
:1007500095E00E94F21543E060E08BE195E01ED742
:100760006EEB72E08BE195E00E94F21540E066E0EE
:100770008BE195E013D74AE06091A104CE01019688
:100780000E947016BE016F5F7F4F8BE195E00E9463
:10079000E415CE0101960E94F31540E060E18BE183
:1007A00095E0FCD64AE06091A004CE0101960E943B
:1007B0007016BE016F5F7F4F8BE195E00E94E415DC
:1007C000CE0101960E94F31541E066E08BE195E0D1
:1007D000E5D64AE060919F04CE0101960E94701612
:1007E000BE016F5F7F4F8BE195E00E94E415CE0163
:1007F00001960E94F31541E060E18BE195E0CED6D1
:100800006091A8047091A9044AE0CE0101960E946B
:100810009B16BE016F5F7F4F8BE195E00E94E41550
:10082000CE0101960E94F31542E066E08BE195E06F
:10083000B5D64AE060919D04CE0101960E947016E3
:10084000BE016F5F7F4F8BE195E00E94E415CE0102
:1008500001960E94F31542E060E18BE195E09ED69F
:100860006091A6047091A7044AE0CE0101960E940F
:100870009B16BE016F5F7F4F8BE195E00E94E415F0
:10088000CE0101960E94F31543E066E08BE195E00E
:1008900085D66091A4047091A5044AE0CE0101962A
:1008A0000E949B16BE016F5F7F4F8BE195E00E9417
:1008B000E415CE0101960E94F31543E060E18BE15F
:1008C00095E06CD66091A2047091A3044AE0CE0139
:1008D00001960E949B16BE016F5F7F4F8BE195E0F2
:1008E0000E94E415CE0101960E94F31568EC70E0B9
:1008F00080E090E00E94291159CE14E68091AA046C
:100900009091AB04029709F007C18CEA94E00E9431
:100910006F0E882349F0823439F41092AB041092A0
:10092000AA048BE195E035D68091200290912102B6
:10093000019759F440E060E08BE195E02FD663ED3C
:1009400072E08BE195E00E94F21580912002909177
:100950002102892B09F540E060E08BE195E01ED68D
:1009600063EE72E08BE195E00E94F21560E0809109
:1009700006020E942F1368EC70E080E090E00E9475
:10098000291161E0809106020E942F1368EC70E04B
:1009900080E090E00E94291182E00E94BB119C013E
:1009A000129FC001139F900D112497FF02C0815028
:1009B0009C4F892F990F990B8595859591958195D8
:1009C00091098C599F4F9093A5048093A40483E0D0
:1009D0000E94BB119C01129FC001139F900D112416
:1009E00097FF02C081509C4F892F990F990B8595D5
:1009F00085959195819591098C599F4F9093A3046A
:100A00008093A20441E060E08BE195E0C7D563EFFD
:100A100072E08BE195E00E94F2158091A404909120
:100A2000A50441E066E00A9734F48BE195E0B6D581
:100A300069E073E005C08BE195E0B0D56CE073E050
:100A40008BE195E00E94F2158091A2049091A3049D
:100A500041E060E10A9734F48BE195E09FD569E0CD
:100A600073E005C08BE195E099D56CE073E08BE114
:100A700095E00E94F21542E060E08BE195E08ED5B2
:100A80006FE073E08BE195E00E94F21580911E0209
:100A900090911F02019759F442E066E08BE195E0E6
:100AA0007DD56CE573E08BE195E00E94F2158091B5
:100AB0001E0290911F02892B59F442E066E08BE1FF
:100AC00095E06CD569E673E08BE195E00E94F21544
:100AD00080911C0290911D02019759F442E060E15F
:100AE0008BE195E05BD56CE573E08BE195E00E94CE
:100AF000F21580911C0290911D02892B09F0FECE07
:100B000042E060E18BE195E049D569E673E08BE175
:100B100095E00E94F215F2CE20E2C22ED12C01E027
:100B200010E033E0E32EF12C46E0A42EB12C55E08A
:100B3000852E912C64E0662E712C8091AA049091F0
:100B4000AB04039709F0E7C18CEA94E00E946F0EB2
:100B5000882399F0813339F48FE190E09093AB04CE
:100B60008093AA0407C0823309F00FC4D092AB046B
:100B7000C092AA048BE195E00CD540E060E08BE1E7
:100B800095E00CD564E273E08BE195E00E94F215EC
:100B900041E060E08BE195E001D564E373E08BE137
:100BA00095E00E94F21542E060E08BE195E0F6D41A
:100BB00066E473E08BE195E00E94F2158091AA044F
:100BC0009091AB044F9709F06CC08CEA94E00E94BE
:100BD0006F0E882389F0823441F4F092AB04E092E6
:100BE000AA048BE195E0D5D407C0813309F0D5C3C1
:100BF00010931F0200931E0280911E0290911F020B
:100C0000019729F460E080911A020E942F138091CD
:100C10001E0290911F02892B29F461E080911A0233
:100C20000E942F1380911C0290911D02019729F4BC
:100C300060E0809118020E942F1380911C02909115
:100C40001D02892B29F461E0809118020E942F1364
:100C500040E060E08BE195E0A1D462E573E08BE1D8
:100C600095E00E94F21541E060E08BE195E096D4BA
:100C70006FE573E08BE195E00E94F21542E060E0E1
:100C80008BE195E08BD46DE673E08BE195E00E94FB
:100C9000F21543E060E08BE195E080D46AE773E011
:100CA00089CF82E0482E512C9AEF392E8091AA04E8
:100CB0009091AB04809709F040CF8CEA94E00E94B9
:100CC0006F0E882389F0823441F4F092AB04E092F5
:100CD000AA048BE195E05DD407C0813309F073C3AA
:100CE00010939B0400939A0480919A0490919B0422
:100CF000019779F460E0809112020E942F1361E065
:100D0000809110020E942F1361E080910E020E94D8
:100D10002F1380919A0490919B04029779F461E0DB
:100D2000809112020E942F1360E0809110020E94B5
:100D30002F1361E080910E020E942F1380919A047C
:100D400090919B04039779F461E0809112020E94D4
:100D50002F1361E0809110020E942F1360E08091B8
:100D60000E020E942F138091980490919904049789
:100D700079F460E080910C020E942F1361E0809171
:100D80000A020E942F1361E0809108020E942F1333
:100D90008091980490919904059779F461E080918D
:100DA00012020E942F1360E080910A020E942F130A
:100DB00061E0809108020E942F1380919804909125
:100DC0009904069779F461E080910C020E942F1338
:100DD00061E080910A020E942F1360E08091080276
:100DE0000E942F1384E00E94BB119C01329EC0011F
:100DF000339E900D112497FF02C081509C4F892F84
:100E0000880F880B959595959093960480939704F9
:100E100085E00E94BB119C01329EC001339E900D63
:100E2000112497FF02C081509C4F892F880F880B97
:100E3000959595959093940480939504609196046C
:100E40007091970488E00E94E01160919404709181
:100E5000950489E00E94E01140E060E08BE195E0BC
:100E60009DD368E873E08BE195E00E94F21541E0C4
:100E700060E08BE195E092D36DE973E08BE195E062
:100E80000E94F21542E060E08BE195E087D362EBCF
:100E900073E08BE195E00E94F21543E060E08BE1A6
:100EA00095E07CD362EB73E08BE195E00E94F21554
:100EB00042E068E08BE195E071D360919604709117
:100EC00097044AE0CE0101960E949B16BE016F5F17
:100ED0007F4F8BE195E00E94E415CE0101960E94C0
:100EE000F31543E068E08BE195E058D360919404FA
:100EF000709195044AE0CE0101960E949B16BE01B6
:100F00006F5F7F4F8BE195E00E94E415CE01019663
:100F10000E94F315CBCEF2E3DF2EA4E6CA2EEE2418
:100F2000E394F12C8091AA049091AB048430910554
:100F300009F0C9C18CEA94E0D2D6882349F0823402
:100F400039F41092AB041092AA048BE195E021D3FE
:100F5000E0912602F09127020190F081E02D00E05F
:100F600010E020EA34E041EA54E066E170E086E215
:100F700092E0199586E00E94BB119C01D29EC001AF
:100F8000D39E900D112497FF02C081509C4F892F52
:100F9000880F880B95959595909392048093930470
:100FA00087E00E94BB119C01D29EC001D39E900D90
:100FB000112497FF02C081509C4F892F880F880B06
:100FC00095959595909390048093910488E00E9464
:100FD000BB119C01C29EC001C39E900D112497FFBE
:100FE00002C081509C4F892F990F990B859585954B
:100FF00091958195910988599F4F90938F04809383
:101000008E0489E00E94BB119C01C29EC001C39E58
:10101000900D112497FF02C081509C4F892F990F8A
:10102000990B8595859591958195910988599F4F43
:1010300090938D0480938C042091A10430E08091E2
:101040009204909193048217930714F460E001C016
:1010500061E0809116020E942F1364E670E080E048
:1010600090E00E9429112091A10430E08091900429
:10107000909191048217930714F460E001C061E03D
:10108000809114020E942F1364E670E080E090E0EB
:101090000E9429112091A00430E080918E0490914B
:1010A0008F042817390784F460E080911A020E94A7
:1010B0002F1364E670E080E090E00E942911F09226
:1010C0001F02E0921E020FC061E080911A020E948E
:1010D0002F1364E670E080E090E00E9429111092E6
:1010E0001F0210921E022091A00430E080918C0417
:1010F00090918D0460E0281739077CF480911802E4
:101100000E942F1364E670E080E090E00E942911B5
:10111000F0921D02E0921C020EC0809118020E9403
:101120002F1364E670E080E090E00E942911109295
:101130001D0210921C0240E060E08BE195E02ED28F
:101140006FE772E08BE195E00E94F21541E060E00C
:101150008BE195E023D267EC73E08BE195E00E9490
:10116000F21542E060E08BE195E018D26CED73E09F
:101170008BE195E00E94F21543E060E08BE195E0A1
:101180000DD261EF73E08BE195E00E94F21541E032
:1011900066E08BE195E002D2609192047091930435
:1011A0004AE0CE0101960E949B16BE016F5F7F4F01
:1011B0008BE195E00E94E415CE0101960E94F315A3
:1011C00041E060E18BE195E0E9D160918E0470919E
:1011D0008F044AE0CE0101960E949B16BE016F5F0C
:1011E0007F4F8BE195E00E94E415CE0101960E94AD
:1011F000F31542E066E08BE195E0D0D16091900478
:10120000709191044AE0CE0101960E949B16BE01A6
:101210006F5F7F4F8BE195E00E94E415CE01019650
:101220000E94F31542E060E18BE195E0B7D1609157
:101230008C0470918D044AE0CE0101960E949B16A9
:10124000BE016F5F7F4F8BE195E00E94E415CE01F8
:1012500001960E94F315809120029091210201973E
:1012600059F443E068E08BE195E098D16FEF73E0CB
:101270008BE195E00E94F21580912002909121026D
:10128000892B09F04FCE43E068E08BE195E086D1F1
:101290006AE074E08BE195E00E94F21560E08091D5
:1012A00006020E942F1368EC70E080E090E0D1D736
:1012B00061E0809106020E942F1368EC70E080E0EC
:1012C00090E0C7D72FCE059709F0A1C08CEA94E033
:1012D00006D5882349F0823439F41092AB04109279
:1012E000AA048BE195E055D140E060E08BE195E008
:1012F00055D165E174E08BE195E00E94F21541E083
:1013000060E08BE195E04AD166E274E08BE195E024
:101310000E94F21542E060E08BE195E03FD168E386
:1013200074E08BE195E00E94F21543E060E08BE110
:1013300095E034D16CE474E08BE195E00E94F21505
:1013400061E0809116020E942F1361E080911402E7
:101350000E942F1361E080911A020E942F1361E016
:10136000809118020E942F1352C0833319F483E036
:1013700090E0D6C8843319F484E090E0D1C8853376
:1013800009F0D6C885E090E0CBC8823409F0F5CBEF
:101390001092AB041092AA04EDCB823329F4109280
:1013A0001F0210921E0228CC833329F410931D02D1
:1013B00000931C0221CC843309F01ECC10921D0234
:1013C00010921C0219CC823329F450929B04409253
:1013D0009A048ACC833329F4F0929B04E0929A0415
:1013E00083CC843329F470929904609298047CCC65
:1013F000853329F4909299048092980475CC8633B1
:1014000009F072CCB0929904A09298046DCC269603
:101410000FB6F894DEBF0FBECDBFDF91CF911F9105
:101420000F91FF90EF90DF90CF90BF90AF909F9083
:101430008F907F906F905F904F903F900895CF92E4
:10144000EF920F9387E0C82E96E0E92E05E024E0A6
:1014500043E062E08BE195E041D124E0E22E04E03C
:1014600028E232E04CE252E060E372E08CEA94E081
:1014700061D10F91EF90CF900895CF93DF93EC015E
:1014800060E08E810E942F1381E090E007D761E039
:101490008E810E942F1381E090E000D760E08E8162
:1014A0000E942F1384E690E0DF91CF91F7C6EF9270
:1014B000FF920F931F93CF93DF938C01C0E0D0E096
:1014C000E62EF12CB7010C2E02C0759567950A9493
:1014D000E2F76170F801EC0FFD1F87810E942F1366
:1014E0002196C430D10571F7C801DF91CF911F91CA
:1014F0000F91FF90EF90C1CFEF92FF920F931F9348
:10150000CF93DF938C01C0E0D0E0E62EF12CB70141
:101510000C2E02C0759567950A94E2F76170F80188
:10152000EC0FFD1F87810E942F132196C830D10533
:1015300071F7C801DF91CF911F910F91FF90EF904C
:101540009CCF1F93CF93DF93EC01162F642F8C81D8
:101550000E942F138D818F3F19F060E00E942F139E
:101560008F85612F84FF05C0CE01DF91CF911F9140
:10157000C3CF70E084E0759567958A95E1F7CE0159
:1015800096DF612FCE01DF91CF911F9190CF40E088
:10159000D8CF61E0FCDF80ED97E080C6443008F0F2
:1015A00043E0FC012389421710F04FEF420FFC018A
:1015B000E40FF11D2489260F2068622FE8CFFC017B
:1015C0006089262F2460208B6C60E1CF0F931F93DE
:1015D000CF93DF93EC01423018F08F8588608F87BE
:1015E0004B8B1C8A80E48D8B6E8B70E0605C7F4F30
:1015F0006F8B222329F0413019F48F8584608F8707
:1016000061E08C81F3D78D818F3F11F061E0EED7DF
:1016100061E08E81EBD700E010E08F8584FF03C08E
:1016200088E090E002C084E090E0081719074CF4CD
:10163000FE01E00FF11F61E08781D8D70F5F1F4FD8
:10164000ECCF80E593EC2AD660E08C810E942F13CA
:1016500060E08E810E942F138D818F3F11F060E03A
:10166000FED76F8564FD16C063E0CE0120DF84E9FC
:1016700091E114D663E0CE011ADF84E991E10ED640
:1016800063E0CE0114DF86E990E008D662E0CE0187
:101690000EDF11C06062CE017ADF84E991E1FED5F0
:1016A0006F856062CE0173DF86E990E0F7D56F85C4
:1016B0006062CE016CDF6F856062CE0168DF84E01E
:1016C000888BCE017CDFCE0164DF82E0898B66E00F
:1016D000CE01DF91CF911F910F9159CFCF92EF9211
:1016E0000F93FC01138212828DE594E09183808335
:1016F00064838FEF8583468327830087E186C286D4
:101700001386148615861686178620E041E060E170
:10171000CF010F91EF90CF9059CF41E012DF81E0E0
:1017200090E00895862F642F61C7862F642F97C796
:10173000862FCAC74F925F926F927F928F929F922D
:10174000AF92BF92CF92DF92EF920F93CF93DF933E
:10175000EC014B013A0159010296E1D285E694E091
:10176000998388836E018CE1C80ED11C26018CE31D
:10177000480E511CC601D3D286E0C80ED11CC41439
:10178000D504C1F7FE01EE59FF4F71826082329697
:10179000B182A082329600833196E082379791829F
:1017A000808238968AE090E091838083329684EF3D
:1017B00091E0918380833396118210827197108219
:1017C000118212821382C459DF4F1882DF91CF91A8
:1017D0000F91EF90DF90CF90BF90AF909F908F9040
:1017E0007F906F905F904F9008952F923F924F920D
:1017F0005F926F927F928F929F92AF92BF92CF92A1
:10180000DF92EF92FF920F931F93CF93DF93CDB7A9
:10181000DEB728970FB6F894DEBF0FBECDBF98870E
:101820008F83F12C4C0186E6880E911C0F81188560
:101830000E591F4FD4018C91F816A0F4AF81B885D2
:101840008D919C91F801A081B181AF0DB11DFC017A
:101850002081318142E06C918F819885F901199541
:10186000F394E8CF512CEF81F885E959FF4FFA83C3
:10187000E9830F8118850C591F4FC12CD12C76019B
:10188000C3948F8198858E599F4F9C838B83A981A8
:10189000BA818C91581608F088C0A52CB12CAF8164
:1018A000B8858D919C91F801A081B181AA0DBB1DD5
:1018B000FC012081318141E06C918F819885F90193
:1018C0001995AF81B8858D919C91F801A081B18166
:1018D000AA0DBB1DFC012281338140E06C918F81F8
:1018E0009885F9011995D701C601052C04C0880F08
:1018F000991FAA1FBB1F0A94D2F79C011C012094B8
:101900003094412CD4018C91EF81F8854081518134
:10191000481648F5642C712CEB81FC81A081B181C3
:10192000A60DB71DFA01448155816C918F81988570
:101930002D833E83FA011995660C771C2D813E811B
:10194000EF81F885E60DF71D892B29F480859185B7
:10195000822B932B04C080859185822193219187CE
:1019600080874394CFCFF801A081B181AA0DBB1D20
:10197000FA012281338141E06C918F819885F901D0
:101980001995AF81B8858D919C91F801A081B181A5
:10199000AA0DBB1DFC012081318140E06C918F813B
:1019A0009885F9011995539472CF28960FB6F8943B
:1019B000DEBF0FBECDBFDF91CF911F910F91FF9082
:1019C000EF90DF90CF90BF90AF909F908F907F90DF
:1019D0006F905F904F903F902F900895FC0180E0B2
:1019E00090E0258D368D2617370739F0019636960B
:1019F0008A309105B1F78FEF9FEF0895DC0126E063
:101A0000629FA00DB11D112490965C934E935F9739
:101A100021E091962C939197FC01E459FF4F20818E
:101A200031960190F081E02D222331F0309749F07A
:101A3000611107C0DC0102C0309719F05C968C91EF
:101A400019940895CF92DF92FF920F931F93CF9333
:101A5000DF931F92CDB7DEB76C01F62EFC0186E056
:101A6000689FE00DF11D112411A2878D90A1813096
:101A70009105E1F01CF4892B51F042C082309105B0
:101A800081F1039709F03CC040E050E02EC04423B0
:101A9000B9F141E050E0C601B1DFACD3F601E85A3C
:101AA000FF4F60837183828393832AC04983A2D3CB
:101AB000F601E85AFF4F0081118122813381601BBA
:101AC000710B820B930B72960081118120E030E044
:101AD0004981061717072807390718F442E050E034
:101AE00004C041110DC043E050E06F2DC6010F90BE
:101AF000DF91CF911F910F91FF90DF90CF907ECF1C
:101B00000F90DF91CF911F910F91FF90DF90CF90B9
:101B100008952F923F924F925F926F927F928F9291
:101B20009F92AF92BF92CF92DF92EF92FF920F936C
:101B30001F93CF93DF931F92CDB7DEB71C01FC013B
:101B40004AE08FEF9FEF278D30A1232B21F4148ED5
:101B5000968F858F11A2415036964111F4CF712C8A
:101B6000610126E6C20ED11C510187E6A80EB11C08
:101B70004101A0E68A0E911C46E0442ED6018C91CC
:101B8000781608F053C0612C8101070D111D070D57
:101B9000111D085F1F4FF501E0806E1408F044C06E
:101BA000F80140815181062C02C0569547950A9450
:101BB000E2F741707E9C70011124E60CF11CD40107
:101BC000ED91FC91EE0DFF1D5080B701C1014983DD
:101BD00005DF498197FD02C0682F1BC0019611F5F2
:101BE000442301F180E090E060E070E0F101E80F53
:101BF000F91F248D211110C0469EF001479EF00D63
:101C00001124E20DF31D548EF68EE58E10A2178E70
:101C100041E0C10117DF06C06F5F7F4F06966A3053
:101C2000710521F76394B7CF7394A8CF20E030E01B
:101C300080E0F101E20FF31F91A1911181E02A5F91
:101C40003F4F2C333105A9F70F90DF91CF911F91B2
:101C50000F91FF90EF90DF90CF90BF90AF909F904B
:101C60008F907F906F905F904F903F902F9008954E
:101C7000CF92DF92EF92FF920F931F93CF93DF9358
:101C80008C01B8D2E801C45ADF4FC880D980EA80FD
:101C9000FB806C197D098E099F09F801E859FF4FF7
:101CA000C080D180E12CF12CC616D706E806F906D3
:101CB00058F4C8019ADDC8012CDF182F9BD2688325
:101CC00079838A839B8301C010E0812FDF91CF91BC
:101CD0001F910F91FF90EF90DF90CF9008950F9399
:101CE0001F93CF93DF93EC018C0104591F4F81E0C8
:101CF000F8018083CE01BCDF882349F089A18823C5
:101D000031F08F8D98A1019711F48C8D03C0F801EB
:101D1000108280E0DF91CF911F910F910895FC0117
:101D200010821482138215820895CF92DF92EF926F
:101D3000FF920F931F93CF93DF93CDB7DEB7289712
:101D40000FB6F894DEBF0FBECDBF6A0179011D82C8
:101D50001E821F82188619821A821B821C82DC0155
:101D6000ED91FC910280F381E02D9E012F5F3F4FAA
:101D7000AE014B5F5F4F19958C010097B1F4C11410
:101D8000D10441F06D817E818F8198850E94D316A8
:101D9000F6016083E114F10441F069817A818B815D
:101DA0009C810E94D316D7016C93C80128960FB668
:101DB000F894DEBF0FBECDBFDF91CF911F910F9181
:101DC000FF90EF90DF90CF90089527E030E080E023
:101DD000FB014191BF01022E01C0440F0A94EAF7B2
:101DE000840F21503109A0F708958F929F92AF92EE
:101DF000BF92CF92DF92EF92FF920F931F93CF93F8
:101E0000DF93EC018B016A017901E881F981068099
:101E1000F781E02D1995B82EE881F981B801685F46
:101E20007F4F0680F781E02DCE011995A82EE8811D
:101E3000F981B801605F7F4F0680F781E02DCE0108
:101E40001995982EE881F981B801685E7F4F068068
:101E5000F781E02DCE011995882EE881F981B8012E
:101E6000605E7F4F0680F781E02DCE0119959A2D97
:101E70009B0D990D980D89130FC0682D70E079297D
:101E8000F601718360834A2D50E05B29F70151838D
:101E9000408380E090E002C089E690E0DF91CF913E
:101EA0001F910F91FF90EF90DF90CF90BF90AF9078
:101EB0009F908F9008958F929F92AF92BF92CF92F2
:101EC000DF92EF92FF920F931F93CF93DF93CDB7E3
:101ED000DEB7AC970FB6F894DEBF0FBECDBF5C0186
:101EE0006A017901CE0101964C0188E2D4011D926C
:101EF0008A95E9F7D501ED91FC910084F185E02DFB
:101F0000A401C5011995009709F050C01CA61BA695
:101F10001AA619A6D501ED91FC910284F385E02D56
:101F20009E01275D3F4FAE01455D5F4FB401C50186
:101F300019950097D9F50115110539F088E2F401DA
:101F4000D80101900D928A95E1F7C114D10479F07E
:101F50008CA5682F782F770F770B882777FD8095D2
:101F6000982F54D7F6016083718382839383E114A1
:101F7000F10481F08AA5682F782F770F770B8827D7
:101F800077FD8095982F42D7D7016D937D938D93E0
:101F90009C9313978BA59CA5892B31F489A59AA5B1
:101FA000892B11F48AE601C080E090E0AC960FB670
:101FB000F894DEBF0FBECDBFDF91CF911F910F917F
:101FC000FF90EF90DF90CF90BF90AF909F908F9059
:101FD0000895DF92EF92FF920F931F93CF93DF93B9
:101FE000D62ECA016AE070E075D7EB011816190603
:101FF0000CF4219600E010E0E22EF12C0C171D07E6
:102000005CF48AE090E04AD18D2D5ED38E159F0559
:1020100031F40F5F1F4FF2CF8FEF9FEF02C080E0D0
:1020200090E0DF91CF911F910F91FF90EF90DF90A3
:102030000895AF92BF92CF92DF92EF92FF920F93EB
:102040001F93CF93DF93EC01B62EA72E6A0188E28F
:10205000FA0111928A95E9F761E08B2DC7D260E011
:102060008B2DFDD264E170E080E090E0F2D061E081
:102070008B2DF5D260E08B2DB9D28EE190E00ED1A0
:10208000E881F9810480F581E02D20E040E550E011
:102090006B2D7A2DCE011995892B79F5E881F9817F
:1020A0000480F581E02D21E040E550E06B2D7A2D94
:1020B000CE011995892B21F5E12CF12CE881F981CC
:1020C0000480F581E02D20E042E350E06B2D7A2D75
:1020D000CE011995892BB9F400E010E08B2DF4D2D4
:1020E0000197A1F48AE090E0D9D00F5F1F4F08302C
:1020F0001105A1F787E690E028C084E690E025C0AE
:1021000085E690E022C086E690E01FC081E00430C2
:1021100011050CF480E0F60181936F01FFEFEF1AD7
:10212000FF0A88E2E816F10449F6E881F9810480A3
:10213000F581E02D20E042E350E06B2D7A2DCE01B9
:102140001995009711F088E690E0DF91CF911F91EB
:102150000F91FF90EF90DF90CF90BF90AF900895D8
:102160001F920F920FB60F9211242F933F938F93CC
:102170009F93AF93BF938091340590913505A091C3
:102180003605B09137053091330523E0230F2D3705
:1021900020F40196A11DB11D05C026E8230F02966B
:1021A000A11DB11D2093330580933405909335050F
:1021B000A0933605B0933705809138059091390585
:1021C000A0913A05B0913B050196A11DB11D8093E8
:1021D000380590933905A0933A05B0933B05BF911C
:1021E000AF919F918F913F912F910F900FBE0F90C4
:1021F0001F9018952FB7F8946091340570913505AC
:1022000080913605909137052FBF08953FB7F89418
:102210008091380590913905A0913A05B0913B0520
:1022200026B5A89B05C02F3F19F00196A11DB11D31
:102230003FBF6627782F892F9A2F620F711D811D4E
:10224000911D42E0660F771F881F991F4A95D1F7AD
:102250000895CF92DF92EF92FF92CF93DF936B01BD
:102260007C01D4DFEB01C114D104E104F10479F065
:1022700099D5CCDF6C1B7D0B683E7340A0F381E0E9
:10228000C81AD108E108F108C851DC4FECCFDF9142
:10229000CF91FF90EF90DF90CF900895823091051D
:1022A00038F0880F991F880F991F05970197F1F74C
:1022B0000895789484B5826084BD84B5816084BDBE
:1022C00085B5826085BD85B5816085BDEEE6F0E0AF
:1022D000808181608083E1E8F0E01082808182600B
:1022E0008083808181608083E0E8F0E0808181608C
:1022F0008083E1EBF0E0808184608083E0EBF0E0BC
:10230000808181608083E1E9F0E080818260808368
:10231000808181608083E0E9F0E08081816080835A
:10232000E1EAF0E080818260808380818160808347
:10233000E0EAF0E0808181608083E1E2F1E0808189
:1023400082608083808181608083E0E2F1E080812F
:1023500081608083EAE7F0E080818460808380810F
:1023600082608083808181608083808180688083B7
:102370001092C1000895863308F0865320917B00A7
:10238000982F9870277F922B90937B0087702091D5
:10239000400290E4299F90011124822B80937C00BD
:1023A00080917A00806480937A0080917A0086FD23
:1023B000FCCF809178002091790090E0922B0895D5
:1023C0001F93CF93DF93182FEB0161E00FD120977C
:1023D00011F460E004C0CF3FD10531F461E0812FFA
:1023E000DF91CF911F913BC1E12FF0E0E45DFE4F03
:1023F000449150E0FA013197E231F10508F09AC0BA
:10240000EE58FF4F9CC584B5806884BDC7BD97C09A
:1024100084B5806284BDC8BD92C080918000806810
:1024200080938000D0938900C093880088C08091F9
:102430008000806280938000D0938B00C0938A00DC
:102440007EC080918000886080938000D0938D0052
:10245000C0938C0074C08091B00080688093B000FD
:10246000C093B3006CC08091B00080628093B000D4
:10247000C093B40064C08091900080688093900005
:10248000D0939900C09398005AC0809190008062C8
:1024900080939000D0939B00C0939A0050C080918D
:1024A0009000886080939000D0939D00C0939C0022
:1024B00046C08091A00080688093A0008091A00019
:1024C0008F7B8093A000D093A900C093A80037C051
:1024D0008091A00080628093A000D093AB00C09355
:1024E000AA002DC08091A00088608093A000D093A6
:1024F000AD00C093AC0023C0809120018068809320
:102500002001D0932901C093280119C08091200196
:10251000806280932001D0932B01C0932A010FC0C9
:1025200080912001886080932001D0932D01C09379
:102530002C0105C0C038D1050CF050CF4ACFDF9137
:10254000CF911F91089590E0FC013197E231F105A0
:1025500008F04BC0EC57FF4FF2C4809180008F779A
:1025600003C0809180008F7D8093800008958091CA
:102570008000877FF9CF84B58F7702C084B58F7DC7
:1025800084BD08958091B0008F7703C08091B00022
:102590008F7D8093B0000895809190008F7707C061
:1025A000809190008F7D03C080919000877F809301
:1025B000900008958091A0008F7707C08091A000BF
:1025C0008F7D03C08091A000877F8093A000089535
:1025D000809120018F7707C0809120018F7D03C0FB
:1025E00080912001877F809320010895CF93DF930E
:1025F00090E0FC01EE58FE4F2491FC01E854FE4FA0
:102600008491882349F190E0880F991FFC01EE5CCA
:10261000FD4FA591B491885E9D4FFC01C591D49169
:102620009FB7611108C0F8948C91209582238C93F8
:10263000888182230AC0623051F4F8948C91322F41
:10264000309583238C938881822B888304C0F894EF
:102650008C91822B8C939FBFDF91CF9108950F9324
:102660001F93CF93DF931F92CDB7DEB7282F30E0B3
:10267000F901E45DFE4F8491F901EE58FE4F14918B
:10268000F901E854FE4F04910023C1F0882319F0AA
:10269000698359DF6981E02FF0E0EE0FFF1FE85EEC
:1026A000FD4FA591B4919FB7F8948C91611103C02F
:1026B0001095812301C0812B8C939FBF0F90DF91D8
:1026C000CF911F910F910895CF93DF93282F30E082
:1026D000F901E45DFE4F8491F901EE58FE4FD4916B
:1026E000F901E854FE4FC491CC2389F081112BDF0E
:1026F000EC2FF0E0EE0FFF1FE250FE4FA591B491DA
:102700002C912D2381E090E021F480E002C080E054
:1027100090E0DF91CF910895FC01818D228D90E0B2
:10272000805C9F4F821B91098F7399270895FC014C
:10273000918D828D981731F0828DE80FF11D858D76
:1027400090E008958FEF9FEF0895FC01918D828DA9
:10275000981761F0828DDF01A80FB11D5D968C91F5
:10276000928D9F5F9F73928F90E008958FEF9FEF00
:1027700008958AE595E1892B39F080E090E0892B76
:1027800019F098D1811125C080E090E0892B41F0AB
:1027900080E090E0892B21F00E94000081111CC094
:1027A00080E090E0892B41F080E090E0892B21F0DF
:1027B0000E940000811113C080E090E0892BA1F0FD
:1027C00080E090E0892B81F00E94000081110AC016
:1027D00008950E940000D8CF0E940000E1CF0E941F
:1027E0000000EACF0C9400000895FC01848DDF0105
:1027F000A80FB11DA35ABF4F2C91848D90E0019674
:102800008F739927848FA689B7892C93A089B18962
:102810008C9180648C93938D848D981306C002886C
:10282000F389E02D80818F7D80830895CF93DF939E
:10283000EC01888D8823C1F0EA89FB89808185FDC0
:1028400005C0A889B9898C9186FD0EC00FB607FC1A
:10285000F5CF808185FFF2CFA889B9898C9185FF5A
:10286000EDCFCE01C2DFE8CFDF91CF910895CF92B7
:10287000DF92FF920F931F93CF93DF931F92CDB7F9
:10288000DEB76C0181E0D60158968C9358975B9621
:102890009C915B975C968C915C97981307C05096BF
:1028A000ED91FC915197808185FD2DC0F601038D3E
:1028B00010E00F5F1F4F0F731127F02EF601848D6C
:1028C000F81210C00FB607FCF9CFD6015096ED9163
:1028D000FC915197808185FFF1CFC601698385DF27
:1028E0006981ECCF838DE80FF11DE35AFF4F6083C0
:1028F000D6015B960C935B975296ED91FC915397A2
:10290000808180620CC0D6015696ED91FC9157975C
:1029100060835096ED91FC91519780818064808313
:1029200081E090E00F90DF91CF911F910F91FF9088
:10293000DF90CF900895BF92CF92DF92EF92FF92F7
:10294000CF93DF93EC016A017B01B22EE889F9890C
:1029500082E08083411581EE58076105710599F089
:1029600060E079E08DE390E0A7019601C6D22150A6
:1029700031094109510956954795379527952115F4
:1029800080E1380790F0E889F989108260E874E8FE
:102990008EE190E0A7019601B0D2215031094109A2
:1029A00051095695479537952795EC85FD853083D8
:1029B000EE85FF852083188EEC89FD89B082EA8937
:1029C000FB89808180618083EA89FB8980818860BE
:1029D0008083EA89FB89808180688083EA89FB891A
:1029E00080818F7D8083DF91CF91FF90EF90DF908A
:1029F000CF90BF9008951F920F920FB60F9211249F
:102A00000BB60F922F938F939F93EF93FF93E091C9
:102A10004C05F0914D058081E0915205F0915305F0
:102A200082FD12C09081809155058F5F8F73209138
:102A30005605821751F0E0915505F0E0E45CFA4F3D
:102A4000958F8093550501C08081FF91EF919F91F3
:102A50008F912F910F900BBE0F900FBE0F901F9074
:102A600018951F920F920FB60F9211240BB60F926A
:102A70002F933F934F935F936F937F938F939F9386
:102A8000AF93BF93EF93FF938CE395E0AEDEFF919E
:102A9000EF91BF91AF919F918F917F916F915F91D6
:102AA0004F913F912F910F900BBE0F900FBE0F9043
:102AB0001F9018958CE395E02FDE21E0892B09F417
:102AC00020E0822F089510923F0510923E0588EE77
:102AD00093E0A0E0B0E08093400590934105A0937F
:102AE0004205B09343058FE794E090933D058093B2
:102AF0003C0585EC90E0909349058093480584EC73
:102B000090E090934B0580934A0580EC90E0909381
:102B10004D0580934C0581EC90E090934F05809398
:102B20004E0582EC90E0909351058093500586EC21
:102B300090E09093530580935205109255051092A2
:102B4000560510925705109258050895CF92DF92BE
:102B5000EF92FF920F931F93CF93DF937C016A0153
:102B6000EB0100E010E00C151D0571F06991D70133
:102B7000ED91FC910190F081E02DC7011995892B11
:102B800019F00F5F1F4FEFCFC801DF91CF911F9159
:102B90000F91FF90EF90DF90CF9008956115710530
:102BA00081F0DB010D900020E9F7AD0141505109A2
:102BB000461B570BDC01ED91FC910280F381E02D67
:102BC000199480E090E00895DC01ED91FC91DB0127
:102BD00014964D915C9115976D917C910280F381D3
:102BE000E02D1994DBCFFC01808191815EC2CF93EF
:102BF000DF93EC0188819981009709F056D2198200
:102C000018821D821C821B821A82DF91CF91089547
:102C10000F931F93CF93DF93EC018B016F5F7F4F77
:102C200088819981D1D2009731F0998388831B8361
:102C30000A8381E001C080E0DF91CF911F910F9165
:102C40000895CF93DF93EC0188819981892B29F036
:102C50008A819B818617970758F4CE01D9DF882394
:102C600041F08C819D81892B19F4E881F9811082D2
:102C700081E0DF91CF910895EF92FF920F931F9320
:102C8000CF93DF93EC017B018A01BA01DADF811176
:102C900003C0CE01ACDF06C01D830C83B701888161
:102CA00099817FD3CE01DF91CF911F910F91FF903A
:102CB000EF900895CF93DF93EC016115710559F002
:102CC000FB0101900020E9F7AF0141505109461B7B
:102CD000570BD2DF01C08BDFCE01DF91CF9108957A
:102CE0000F931F93CF93DF93CDB7DEB729970FB61E
:102CF000F894DEBF0FBECDBF8C01862FF801118284
:102D00001082138212821582148250E0BE016F5F1E
:102D10007F4F90E061D3BE016F5F7F4FC801CADF74
:102D200029960FB6F894DEBF0FBECDBFDF91CF91CD
:102D30001F910F9108950F931F93CF93DF93CDB7FA
:102D4000DEB762970FB6F894DEBF0FBECDBF8C0121
:102D5000CB01F80111821082138212821582148233
:102D600050E0BE016F5F7F4F23D3BE016F5F7F4F87
:102D7000C801A0DF62960FB6F894DEBF0FBECDBFCC
:102D8000DF91CF911F910F910895089592DAFDDFA1
:102D90000E945A01C9EBD3E10E946B022097E1F334
:102DA000E8DCFACF089504D06894B1118DC008957D
:102DB00070D088F09F5790F0B92F9927B751A0F0A5
:102DC000D1F0660F771F881F991F1AF0BA95C9F7BF
:102DD00012C0B13081F077D0B1E0089574C0672F90
:102DE000782F8827B85F39F0B93FCCF3869577956F
:102DF0006795B395D9F73EF4909580957095619558
:102E00007F4F8F4F9F4F0895E89409C097FB3EF482
:102E100090958095709561957F4F8F4F9F4F992327
:102E2000A9F0F92F96E9BB279395F69587957795A5
:102E30006795B795F111F8CFFAF4BB0F11F460FF65
:102E40001BC06F5F7F4F8F4F9F4F16C0882311F0BD
:102E500096E911C0772321F09EE8872F762F05C0D1
:102E6000662371F096E8862F70E060E02AF09A956C
:102E7000660F771F881FDAF7880F9695879597F961
:102E8000089557FD9058440F551F59F05F3F71F05A
:102E90004795880F97FB991F61F09F3F79F08795C1
:102EA0000895121613061406551FF2CF4695F1DF4A
:102EB00008C0161617061806991FF1CF86957105DA
:102EC000610508940895E894BB2766277727CB010E
:102ED00097F9089597FB072E16F4009406D077FD16
:102EE00008D037D007FC05D03EF4909581959F4FD0
:102EF0000895709561957F4F0895A1E21A2EAA1B3F
:102F0000BB1BFD010DC0AA1FBB1FEE1FFF1FA21799
:102F1000B307E407F50720F0A21BB30BE40BF50B96
:102F2000661F771F881F991F1A9469F7609570951F
:102F3000809590959B01AC01BD01CF010895EE0FE6
:102F4000FF1F0590F491E02D19940790F691E02D64
:102F50001994AA1BBB1B51E107C0AA1FBB1FA617D0
:102F6000B70710F0A61BB70B881F991F5A95A9F732
:102F700080959095BC01CD010895CF93DF93823069
:102F8000910510F482E090E0E091DB05F091DC0522
:102F900020E030E0A0E0B0E0309739F1408151818D
:102FA00048175907B8F04817590771F4828193817F
:102FB000109729F013969C938E9312972CC09093A0
:102FC000DC058093DB0527C02115310531F0421760
:102FD000530718F0A901DB0101C0EF019A01BD01FF
:102FE000DF010280F381E02DD7CF21153105F9F003
:102FF000281B390B2430310580F48A819B816115AF
:10300000710521F0FB019383828304C09093DC055A
:103010008093DB05FE01329644C0FE01E20FF31FF0
:103020008193919322503109398328833AC02091AA
:10303000D9053091DA05232B41F420910202309119
:1030400003023093DA052093D905209100023091D4
:1030500001022115310541F42DB73EB7409104021C
:1030600050910502241B350BE091D905F091DA054A
:10307000E217F307A0F42E1B3F0B2817390778F04F
:10308000AC014E5F5F4F2417350748F04E0F5F1FAE
:103090005093DA054093D9058193919302C0E0E003
:1030A000F0E0CF01DF91CF910895CF93DF930097A8
:1030B00009F487C0FC01329713821282C091DB05AC
:1030C000D091DC05209781F420813181280F391FB0
:1030D0008091D9059091DA058217930779F5F093DD
:1030E000DA05E093D9056DC0DE0120E030E0AE17CF
:1030F000BF0750F412964D915C9113979D014115B5
:10310000510509F1DA01F3CFB383A28340815181E4
:10311000840F951F8A179B0771F48D919C911197CD
:10312000840F951F02969183808312968D919C91B6
:103130001397938382832115310529F4F093DC05DD
:10314000E093DB053EC0D9011396FC93EE931297F2
:103150004D915D91A40FB51FEA17FB0779F48081AB
:103160009181840F951F0296D90111969C938E939D
:103170008281938113969C938E931297E0E0F0E006
:103180008A819B81009719F0FE01EC01F9CFCE01F5
:10319000029628813981820F931F2091D9053091A1
:1031A000DA052817390769F4309729F41092DC05FD
:1031B0001092DB0502C013821282D093DA05C0930D
:1031C000D905DF91CF9108956F927F928F929F9250
:1031D000AF92BF92CF92DF92EF92FF920F931F9325
:1031E000CF93DF93EC01CB01209779F4DF91CF915E
:1031F0001F910F91FF90EF90DF90CF90BF90AF9015
:103200009F908F907F906F90B8CEFE01E60FF71FD2
:103210009E0122503109E217F30708F4A8C0D90132
:103220000D911C91119706171707B0F00530110585
:1032300008F49BC0A801445051094617570708F4E9
:1032400094C002501109061B170B019311936D9343
:103250007C93CF012ADF89C05B01A01AB10A4E011D
:10326000800E911EA091DB05B091DC05612C712CC4
:1032700060E070E0109709F449C0A815B905C9F5D8
:10328000ED90FC901197670142E0C40ED11CCA1466
:10329000DB0478F147018A189B08640142E0C40E00
:1032A000D11C1296BC9012971396AC91B5E0CB1638
:1032B000D10440F0B282A38391828082D9018D93A0
:1032C0009C9309C00E5F1F4F0E0D1F1DF901118346
:1032D0000083EB2DFA2F6115710531F0DB01139698
:1032E000FC93EE93129741C0F093DC05E093DB056D
:1032F0003CC06D917C9111976616770608F43B01EE
:10330000BD0112960D90BC91A02DB4CF6091D9054E
:103310007091DA0568157905E9F468167906D0F434
:1033200040910002509101024115510541F44DB701
:103330005EB76091040270910502461B570BE417BB
:10334000F507A8F4F093DA05E093D905F901918324
:1033500080830BC012DE7C01009749F0A801BE01FA
:1033600017D0CE01A2DEC70104C0CE0102C080E0AA
:1033700090E0DF91CF911F910F91FF90EF90DF9040
:10338000CF90BF90AF909F908F907F906F90089557
:10339000FB01DC0102C001900D9241505040D8F772
:1033A0000895FB01DC0101900D920020E1F70895E2
:1033B0004532510518F4423008F004C0FB01108278
:1033C000CB010895BB274A3031F4992322F4BDE2A2
:1033D000909581959F4F0BC04532510518F44230AE
:1033E00008F004C0FB011082CB010895BB27FB014C
:1033F0005527AA27880F991FAA1FA41710F0A41BEE
:1034000083955051B9F7A05DAA3308F0A95DA19347
:10341000009779F7B111B1931192CB0100C0DC0193
:10342000FC01672F71917723E1F7329704C07C91FB
:103430006D9370836291AE17BF07C8F30895F89437
:02344000FFCFBC
:103442000000DD058000240023002200210020006E
:103452001F001E001D001C001B001A0003000300B9
:1034620019006F046F046F043533312F3432302E5C
:103472003132334134353642373839432A302344E6
:10348200015B315D4D6F6E69746F72005B325D4935
:103492006E666F726D6163696F6E005B335D4D6165
:1034A2006E75616C205B345D4175746F6D61740083
:1034B2005B355D54656D706F72697A61646F00543B
:1034C200415B635D3A5858582048415B255D3A5844
:1034D2005858200054315B635D3A5858582048319F
:1034E2005B255D3A585858200054325B635D3A5868
:1034F20058582048325B255D3A58585820004C31C4
:103502005B4C5D3A585858204C325B4C5D3A5858E7
:103512005820004E6976656C206167756120616C88
:10352200746F004E6976656C206167756120626117
:103532006A6F004C757A313A2020202020204C7589
:103542007A323A2020202020004E47004F4B005272
:10355200696567313A2020202052696567323A2036
:10356200202020005B315D526965676F204D616EDE
:1035720075616C005B325D496C756D696E2E204D14
:10358200616E75616C005B425D5265677265736165
:1035920072005B315D526965676F31204F4E005B8F
:1035A200325D526965676F31204F4646005B335D7D
:1035B200526965676F32204F4E005B345D52696518
:1035C200676F32204F4646005B315D205231205BEF
:1035D200325D204731205B335D204231005B345D38
:1035E200205232205B355D204732205B365D20421F
:1035F200320050574D5B255D3A20202020202020AC
:10360200202020202020005450313A202020202049
:10361200204850313A202020202020005450323AB5
:103622002020202020204850323A20202020202014
:103632000054616E7175653A202020202020004ED2
:103642006976656C20616C746F004E6976656C20DA
:1036520062616A6F004D6F646F2070726F67726192
:103662006D61626C6500416A75737465206469619D
:10367200207920686F72610064652072656C6179DF
:1036820020616775612079206C757A005B425D204C
:10369200526567726573617200000000008D0BA6AF
:1036A2001500000000920B950B980B00000000958E
:1036B2000E5B0FE90FE50E1910F50E000000003742
:0C36C20014A6158C13A513971316140002
:020000023000CC
:10E000000D9489F10D94B2F10D94B2F10D94B2F129
:10E010000D94B2F10D94B2F10D94B2F10D94B2F1F0
:10E020000D94B2F10D94B2F10D94B2F10D94B2F1E0
:10E030000D94B2F10D94B2F10D94B2F10D94B2F1D0
:10E040000D94B2F10D94B2F10D94B2F10D94B2F1C0
:10E050000D94B2F10D94B2F10D94B2F10D94B2F1B0
:10E060000D94B2F10D94B2F10D94B2F10D94B2F1A0
:10E070000D94B2F10D94B2F10D94B2F10D94B2F190
:10E080000D94B2F10D94B2F10D94B2F10D94B2F180
:10E090000D94B2F10D94B2F10D94B2F10D94B2F170
:10E0A0000D94B2F10D94B2F10D94B2F10D94B2F160
:10E0B0000D94B2F10D94B2F10D94B2F10D94B2F150
:10E0C0000D94B2F10D94B2F10D94B2F10D94B2F140
:10E0D0000D94B2F10D94B2F10D94B2F10D94B2F130
:10E0E0000D94B2F141546D656761323536300041AF
:10E0F000726475696E6F206578706C6F72657220DE
:10E1000073746B3530305632206279204D4C530099
:10E11000426F6F746C6F616465723E004875683F52
:10E1200000436F6D70696C6564206F6E203D200048
:10E130004350552054797065202020203D20005FF9
:10E140005F4156525F415243485F5F3D2000415658
:10E1500052204C696243205665723D20004743437C
:10E160002056657273696F6E203D20004350552024
:10E1700049442020202020203D20004C6F7720663D
:10E18000757365202020203D20004869676820665F
:10E190007573652020203D200045787420667573D6
:10E1A00065202020203D20004C6F636B2066757336
:10E1B000652020203D20004D617220203720323024
:10E1C000313300312E362E3800342E332E350056A2
:10E1D00023202020414444522020206F7020636F70
:10E1E00064652020202020696E73747275637469E1
:10E1F0006F6E2061646472202020496E74657272B3
:10E20000757074006E6F20766563746F7200726A49
:10E210006D702020006A6D70200057686174207056
:10E220006F72743A00506F7274206E6F7420737541
:10E2300070706F72746564004D7573742062652030
:10E2400061206C6574746572002000577269747483
:10E25000696E672045450052656164696E672045B7
:10E26000450045452065727220636E743D00504F35
:10E27000525400303D5A65726F2061646472003FF1
:10E280003D43505520737461747300403D454550C3
:10E29000524F4D207465737400423D426C696E6B41
:10E2A000204C454400453D44756D70204545505215
:10E2B0004F4D00463D44756D7020464C415348001B
:10E2C000483D48656C70004C3D4C69737420492F83
:10E2D0004F20506F72747300513D51756974005234
:10E2E0003D44756D702052414D00563D73686F7707
:10E2F00020696E7465727275707420566563746FF0
:10E30000727300593D506F727420626C696E6B00BD
:10E310002A0011241FBECFEFD1E2DEBFCDBF01E046
:10E320000CBF12E0A0E0B2E0EEE1FDEF03E00BBFB6
:10E3300002C007900D92A030B107D9F712E0A0E01B
:10E34000B2E001C01D92AE30B107E1F70F9460F367
:10E350000D948DFE01E20EBF0FEF0DBF11241FBE05
:10E360000D9460F30D9400F020E030E040ED57E0B4
:10E3700005C0FA013197F1F72F5F3F4F2817390792
:10E38000C0F308959C01260F311DC901A0E0B0E043
:10E390002F5F3F4FABBFFC018791882361F08093D3
:10E3A000C6008091C00086FFFCCF8091C0008064D1
:10E3B0008093C000EACF08958DE08093C6008091DD
:10E3C000C00086FFFCCF8091C00080648093C000B5
:10E3D0008AE08093C6008091C00086FFFCCF8091C8
:10E3E000C00080648093C00008950F94C2F10F9420
:10E3F000DCF10895FC019081992359F09093C600B7
:10E400008091C00086FFFCCF8091C0008064809323
:10E41000C0003196992379F70895282F982F929567
:10E420009F70892F805D8A3308F0895F8093C600D2
:10E430008091C00086FFFCCF8091C00080648093F3
:10E44000C000822F8F70982F905D9A3308F0995FEB
:10E450009093C6008091C00086FFFCCF8091C000E1
:10E4600080648093C00008959C01FB01853691056E
:10E470001CF46330710594F0C90164E670E00F94F8
:10E480002EFE605D7F4F6093C6008091C00086FFC6
:10E49000FCCF8091C00080648093C0002B30310598
:10E4A00014F43297B4F0C90164E670E00F942EFEC4
:10E4B0006AE070E00F942EFE605D7F4F6093C600AF
:10E4C0008091C00086FFFCCF8091C0008064809363
:10E4D000C000C9016AE070E00F942EFEC0968093E0
:10E4E000C6008091C00086FFFCCF8091C000806490
:10E4F0008093C00008951F93182F8EE692EE60E07F
:10E500000F94C2F11093C6008091C00086FFFCCF2B
:10E510008091C00080648093C0000F94DCF11F9153
:10E5200008952F923F924F925F926F927F928F92B7
:10E530009F92AF92BF92CF92DF92EF92FF920F9392
:10E540001F93DF93CF93CDB7DEB762970FB6F894E2
:10E55000DEBF0FBECDBF382E622ECA01DB015C01CB
:10E560006D01772420E2222E2E010894411C511CBB
:10E570008BC081E0A81680E0B80681E0C80680E084
:10E58000D80628F0C601AA27BB270F940DF2BB2797
:10E59000AD2D9C2D8B2D0F940DF28A2D0F940DF225
:10E5A0002092C6008091C00086FFFCCF8091C00001
:10E5B00080648093C0009DE29093C6008091C0006B
:10E5C00086FFFCCF8091C00080648093C0002092C1
:10E5D000C6008091C00086FFFCCF8091C00080649F
:10E5E0008093C00019828601750188249924A1E0D6
:10E5F0003A1651F03A1620F0B2E03B1661F409C029
:10E600000BBFF701779007C0C7010F9477FE782EF4
:10E6100002C0F7017080872D0F940DF22092C60082
:10E620008091C00086FFFCCF8091C0008064809301
:10E63000C000872D8052F401EF70F0708F3520F408
:10E64000E40DF51D708204C0E40DF51D8EE280839B
:10E650000894E11CF11C011D111D0894811C911CE2
:10E6600090E18916910409F0C2CF80E190E0A0E02A
:10E67000B0E0A80EB91ECA1EDB1E198AC2010F9493
:10E68000FAF10F94DCF16A94662009F072CF629679
:10E690000FB6F894DEBF0FBECDBFCF91DF911F91B3
:10E6A0000F91FF90EF90DF90CF90BF90AF909F9031
:10E6B0008F907F906F905F904F903F902F90089534
:10E6C0002F923F924F925F926F927F928F929F9282
:10E6D000AF92BF92CF92DF92EF92FF920F931F9370
:10E6E000DF93CF93CDB7DEB7CD53D1400FB6F894BB
:10E6F000DEBF0FBECDBF01E20EBF0FEF0DBF94B75F
:10E70000F894A89514BE80916000886180936000A1
:10E7100010926000789493FF05C0E0910002F091A0
:10E7200001021995279A2F9A8091C00082608093E8
:10E73000C00080E18093C40088E18093C1000000A4
:10E74000EE24FF24870144E0A42EB12CCC24DD2448
:10E7500024C0C5010197F1F70894E11CF11C011DCB
:10E76000111D21E2E2162EE4F20620E0020720E06D
:10E77000120718F031E0C32ED12CC801B70127ECE5
:10E780003BE140E050E00F9441FE611571058105C9
:10E79000910519F485B1805885B98091C00087FD35
:10E7A00003C0C114D104A9F2A6014F5F5F4FC25E3E
:10E7B000DE4F59834883CE51D140C25EDE4F8881FF
:10E7C0009981CE51D140019711F00D9410FEC05D9A
:10E7D000DE4F19821882C053D14060E0C15DDE4F28
:10E7E0001882CF52D14088249924C35DDE4F19820C
:10E7F0001882CD52D140C05EDE4F188219821A8233
:10E800001B82C052D140CE5CDE4F188219821A8220
:10E810001B82C253D140EE24FF2487010BBFF701B6
:10E8200007911691C45CDE4F19830883CC53D14005
:10E830000D940BFEC25EDE4F28813981CE51D1404E
:10E840002130310509F52091C600C25EDE4F1982E4
:10E850001882CE51D14022C02F5F3F4F4F4F5F4FA4
:10E86000213082E138078AE7480780E0580780F0C6
:10E87000C45CDE4FE881F981CC53D140EF5FFF4F9C
:10E8800019F0EE27FF27099420E030E040E050E047
:10E890008091C00087FFE0CF2091C600C35DDE4FAE
:10E8A00048815981CD52D1404F5F5F4FC35DDE4FEC
:10E8B00059834883CD52D140213209F063C64A3092
:10E8C000510508F05FC60894811C911C53E0851621
:10E8D000910409F059C600E010E018C081E280936D
:10E8E000C6008091C00086FFFCCF8091C00080648C
:10E8F0008093C0002F5F3F4F2931310579F70F9486
:10E90000DCF10F5F1F4F0530110519F020E030E0FA
:10E91000E5CF10920A0210920B0210920C02109294
:10E920000D02109206021092070210920802109235
:10E930000902109202021092030210920402109235
:10E9400005028FEE90EE60E00F94F5F180E191EE1C
:10E9500060E00F94C2F18091C00087FFFCCF9091DE
:10E96000C600903608F09F759032B8F09093C600BC
:10E970008091C00086FFFCCF8091C00080648093AE
:10E98000C000A0E2A093C6008091C00086FFFCCF2B
:10E990008091C00080648093C000983409F4D7C18E
:10E9A0009934B8F4923409F459C1933458F490333B
:10E9B00019F1903308F4E3C59F33A1F1903409F0C5
:10E9C000DEC5BDC0953409F470C1963409F0D7C5D1
:10E9D00098C1923509F42BC2933538F49C3409F46C
:10E9E000F5C1913509F0CBC518C2963509F445C279
:10E9F000993509F0C4C567C483E792EE62E00F94CD
:10EA0000F5F110920602109207021092080210927D
:10EA1000090210920A0210920B0210920C0210923C
:10EA20000D0213C18FE792EE62E00F94F5F18FEEC5
:10EA300090EE60E00F94F5F181E291EE60E00F94CA
:10EA4000C2F187EB91EE60E00F94F5F180E391EE77
:10EA500060E00F94C2F184EE90EE60E00F94F5F167
:10EA60008FE391EE60E00F94C2F186E090E061E008
:10EA700070E00F9434F20F94DCF18DE591EE60E0DC
:10EA80000F94C2F189EC91EE60E00F94F5F18EE401
:10EA900091EE60E00F94C2F183EC91EE60E00F9490
:10EAA000F5F18CE691EE60E00F94C2F18EE10F94E7
:10EAB0000DF288E90F940DF281E00F940DF20F949E
:10EAC000DCF18BE791EE60E00F94C2F119E0E0E039
:10EAD000F0E010935700E4918E2F0F940DF20F94F5
:10EAE000DCF18AE891EE60E00F94C2F1E3E0F0E03F
:10EAF00010935700E4918E2F0F940DF20F94DCF1D8
:10EB000089E991EE60E00F94C2F1E2E0F0E0109349
:10EB10005700E4918E2F0F940DF20F94DCF188EAE8
:10EB200091EE60E00F94C2F1E1E0F0E01093570045
:10EB30001491812F0F940DF20F94DCF107CF8BE825
:10EB400092EE62E00F94F5F18BE492EE60E00F94A8
:10EB5000F5F10F94DCF100E010E019C0C8016F2D51
:10EB60000F947FFEFF2031F489E492EE60E00F9471
:10EB7000C2F10BC0F092C6008091C00086FFFCCFAE
:10EB80008091C00080648093C0000F5F1F4FC80158
:10EB900081519F41A0E0B0E0ABBFFC01F790BAE229
:10EBA000FB1621F0E2E000301E07C1F60F94DCF105
:10EBB0000F94DCF187E592EE60E00F94F5F10F948D
:10EBC000DCF1CC24DD2400E010E01EC0C8010F946D
:10EBD00077FEF82E882331F489E492EE60E00F94FA
:10EBE000C2F10BC08093C6008091C00086FFFCCFAD
:10EBF0008091C00080648093C000FE1419F00894D6
:10EC0000C11CD11C0F5F1F4FC80181519F41A0E063
:10EC1000B0E0ABBFFC01E790FAE2EF1621F022E092
:10EC20000030120799F60F94DCF10F94DCF182E6C4
:10EC300092EE60E00F94C2F1C60161E070E00F94C3
:10EC400034F20F94DCF10F94DCF110920202109276
:10EC50000302109204021092050278CE89E992EE26
:10EC600062E00F94F5F1279A2F9A16C02F9880E052
:10EC700090E0E0EDF7E03197F1F7019684369105E9
:10EC8000C1F72F9A80E090E0E0EDF7E03197F1F7DF
:10EC9000019684369105C1F78091C00087FFE6CFC9
:10ECA0008091C00087FFFCCF64C485EA92EE62E0E9
:10ECB0000F94F5F140910202509103026091040219
:10ECC0007091050281E020E10F9491F2809102029F
:10ECD00090910302A0910402B091050280509F4FD1
:10ECE000AF4FBF4F8093020290930302A0930402A0
:10ECF000B093050280509041A040B04008F426CE69
:10ED0000A4CF83EB92EE62E00F94F5F140910602FE
:10ED100050910702609108027091090280E020E1A1
:10ED20000F9491F28091060290910702A09108023F
:10ED3000B091090280509F4FAF4FBF4F80930602A2
:10ED400090930702A0930802B0930902FFCD80ECD4
:10ED500092EE62E00F94F5F183E792EE60E00F949B
:10ED6000F5F18FE792EE60E00F94F5F18BE892EE0B
:10ED700060E00F94F5F189E992EE60E00F94F5F10F
:10ED800085EA92EE60E00F94F5F183EB92EE60E09D
:10ED90000F94F5F180EC92EE60E00F94F5F187ECC2
:10EDA00092EE60E00F94F5F188ED92EE60E00F9442
:10EDB000F5F18FED92EE60E00F94F5F18AEE92EEB0
:10EDC00060E00F94F5F183E093EEBDCD87EC92EE19
:10EDD00062E00F94F5F181E40F947BF282E40F94EA
:10EDE0007BF283E40F947BF284E40F947BF285E45E
:10EDF0000F947BF286E40F947BF287E40F947BF20E
:10EE000088E40F947BF28AE40F947BF28BE40F94F6
:10EE10007BF28CE40F947BF299CD88ED92EE62E068
:10EE20000F94F5F1772473948824992409C48FED05
:10EE300092EE62E00F94F5F140910A0250910B02BC
:10EE400060910C0270910D0282E020E10F9491F22A
:10EE500080910A0290910B02A0910C02B0910D02D8
:10EE600080509F4FAF4FBF4F80930A0290930B0289
:10EE7000A0930C02B0930D0269CD8AEE92EE62E08F
:10EE80000F94F5F184EE90EE60E00F94F5F18FECC5
:10EE900091EE60E00F94F5F1662477244301CC5D98
:10EEA000DE4F19821882C452D140D401C301B695F5
:10EEB000A79597958795CA5DDE4F88839983AA8326
:10EEC000BB83C652D140CC5DDE4FA881B981C4520C
:10EED000D1401196CC5DDE4FB983A883C452D14096
:10EEE000CD0162E070E00F9434F2B0E2B093C6005E
:10EEF0008091C00086FFFCCF8091C0008064809329
:10EF0000C000EDE2E093C6008091C00086FFFCCF18
:10EF10008091C00080648093C000F0E2F093C6004E
:10EF20008091C00086FFFCCF8091C00080648093F8
:10EF3000C000CA5DDE4FE880F9800A811B81C6529D
:10EF4000D140BB27A12F902F8F2D0F940DF2CA5DBA
:10EF5000DE4F8881C652D1400F940DF2B0E2FB2EF5
:10EF6000F092C6008091C00086FFFCCF8091C00067
:10EF700080648093C0000DE30093C6008091C000C0
:10EF800086FFFCCF8091C00080648093C00010E2B7
:10EF90001093C6008091C00086FFFCCF8091C00016
:10EFA00080648093C0008BBEF3012791C65DDE4F65
:10EFB0002883CA52D140A22EBB24CC24DD2408943D
:10EFC000611C711C811C911C8BBEF3018791282E42
:10EFD0003324442455240894611C711C811C911C09
:10EFE0008BBEF3013791C55DDE4F3883CB52D140E4
:10EFF0000894611C711C811C911C8BBEF30147910C
:10F00000C45DDE4F4883CC52D140ADEFEA2EAFEF66
:10F01000FA2EAFEF0A2FAFEF1A2F6E0C7F1C801E57
:10F02000911E142D032DF22CEE24EA0CFB1C0C1D5A
:10F030001D1D0F940DF220E22093C6008091C000A8
:10F0400086FFFCCF8091C00080648093C000C65DC5
:10F05000DE4F8881CA52D1400F940DF230E23093D6
:10F06000C6008091C00086FFFCCF8091C000806404
:10F070008093C000C45DDE4F8881CC52D1400F9494
:10F080000DF240E24093C6008091C00086FFFCCFA5
:10F090008091C00080648093C000C55DDE4F888190
:10F0A000CB52D1400F940DF250E25093C6008091A4
:10F0B000C00086FFFCCF8091C00080648093C000B8
:10F0C0008FEFE8168FEFF80680E0080780E018075A
:10F0D00031F484E092EE60E00F94C2F1DFC0D80119
:10F0E000C7018070907CA070B0708050904CA040A0
:10F0F000B040D1F52FEF3FE340E050E0E222F322B1
:10F1000004231523CA5DDE4FA880B980CA80DB8046
:10F11000C652D140AE0CBF1CC01ED11EAA0CBB1CD7
:10F12000CC1CDD1C8EE092EE60E00F94C2F1BB2798
:10F13000A12F902F8F2D0F940DF28E2D0F940DF285
:10F1400030E23093C6008091C00086FFFCCF8091F2
:10F15000C00080648093C0004EE34093C60080915D
:10F16000C00086FFFCCF87C08EE09EEFA0E0B0E03D
:10F17000E822F9220A231B239CE0E91694E9F90608
:10F1800090E0090790E0190709F088C0C45DDE4FE0
:10F19000A881CC52D140EA2EFF2400E010E0102FCD
:10F1A0000F2DFE2CEE24C55DDE4FB881CB52D14031
:10F1B000EB0EF11C011D111DD601C501817090706F
:10F1C000A070B070DC0199278827E80EF91E0A1F8D
:10F1D0001B1F20EF30E040E050E0A222B322C42207
:10F1E000D52241E1AA0CBB1CCC1CDD1C4A95D1F7F1
:10F1F000EA0CFB1C0C1D1D1D81E090E0A0E0B0E0BE
:10F20000282239224A225B2235E1220C331C441C7D
:10F21000551C3A95D1F7E20CF31C041D151D57013E
:10F220006801AA0CBB1CCC1CDD1C85E192EE60E0E1
:10F230000F94C2F1C801AA27BB270F940DF2BB2778
:10F24000A12F902F8F2D0F940DF28E2D0F940DF274
:10F2500090E29093C6008091C00086FFFCCF809121
:10F26000C00080648093C000AEE3A093C60080918C
:10F27000C00086FFFCCF8091C00080648093C000F6
:10F28000C601AA27BB270F940DF2BB27AD2D9C2DDD
:10F290008B2D0F940DF28A2D0F940DF20F94DCF14B
:10F2A000CC5DDE4FE881F981C452D140F99709F471
:10F2B0004DCBF4E0EF2EF12C012D112D6E0C7F1CA7
:10F2C000801E911EF2CD83E093EE62E00F94F5F183
:10F2D0008AE192EE60E00F94C2F18091C00087FF56
:10F2E000FCCF1091C6001F751093C6008091C0001E
:10F2F00086FFFCCF8091C00080648093C0000F9493
:10F30000DCF1812F81548A3108F036C1163409F4BA
:10F3100095C0173490F4133409F44EC0143430F40B
:10F320001134F1F0123409F01DC130C0143409F465
:10F3300059C0153409F016C16BC01A3409F4C4C0A1
:10F340001B3438F4173409F48FC0183409F00AC19B
:10F35000A1C01B3409F4D2C01C3409F003C1E8C0B9
:10F360008FEF81B90DC082B1809582B980E090E0C5
:10F37000E0EDF7E03197F1F70196883C9105C1F790
:10F380008091C00087FFEFCF12B8EFC08FEF84B934
:10F390000DC085B1809585B980E090E0E0EDF7E0A3
:10F3A0003197F1F70196883C9105C1F78091C00033
:10F3B00087FFEFCF15B8D9C08FEF87B90DC088B1DF
:10F3C000809588B980E090E0E0EDF7E03197F1F7C3
:10F3D0000196883C9105C1F78091C00087FFEFCF6F
:10F3E00018B8C3C08FEF8AB90DC08BB180958BB9A7
:10F3F00080E090E0E0EDF7E03197F1F70196883C8E
:10F400009105C1F78091C00087FFEFCF1BB8ADC059
:10F410008FEF8DB90DC08EB180958EB980E090E0F0
:10F42000E0EDF7E03197F1F70196883C9105C1F7DF
:10F430008091C00087FFEFCF1EB897C08FEF80BBD1
:10F440000DC081B3809581BB80E090E0E0EDF7E0F6
:10F450003197F1F70196883C9105C1F78091C00082
:10F4600087FFEFCF11BA81C08FEF83BB0DC084B38C
:10F47000809584BB80E090E0E0EDF7E03197F1F714
:10F480000196883C9105C1F78091C00087FFEFCFBE
:10F4900014BA6BC08FEF809301010FC080910201FD
:10F4A00080958093020180E090E0E0EDF7E03197F5
:10F4B000F1F70196883C9105C1F78091C00087FF64
:10F4C000EDCF1092020151C08FEF809304010FC065
:10F4D0008091050180958093050180E090E0E0ED4A
:10F4E000F7E03197F1F70196883C9105C1F78091DB
:10F4F000C00087FFEDCF1092050137C08FEF8093DA
:10F5000007010FC08091080180958093080180E079
:10F5100090E0E0EDF7E03197F1F70196883C910536
:10F52000C1F78091C00087FFEDCF109208011DC088
:10F530008FEF80930A010FC080910B01809580931B
:10F540000B0180E090E0E0EDF7E03197F1F70196F4
:10F55000883C9105C1F78091C00087FFEDCF1092E4
:10F560000B0103C085E292EEEEC98091C00087FFD7
:10F57000FCCF8091C600EAC988E392EEE4C98CE131
:10F5800091EEE1C988249924933011F1943028F444
:10F59000913089F09230B8F408C0953061F195301F
:10F5A000F0F0963009F048C043C02B3109F042C951
:10F5B00091E06BE13FC96227C15DDE4F2883CF52E6
:10F5C000D14092E037C9B22FA0E0622793E032C960
:10F5D000822F90E0A82BB92B622794E02BC92E3004
:10F5E00009F039C3622795E0C05DDE4F19821882A9
:10F5F000C053D1401FC9E1E0F0E0EC0FFD1FC05D3A
:10F60000DE4F08811981C053D140E00FF11F2083E4
:10F610000F5F1F4FC05DDE4F19830883C053D14079
:10F6200062270A171B0709F005C9D80196E002C92D
:10F63000261709F010C303C0973009F0FBC87724E0
:10F640009981933109F412C19431C8F4963009F4C8
:10F65000D8C0973050F4923009F406C1933009F4C1
:10F660006DC0913009F059C253C0913109F477C08F
:10F67000923108F0BBC0903109F04FC2F5C098310B
:10F6800009F487C0993150F4953109F4EFC09531F0
:10F6900008F4C6C1963109F040C2C2C19A3109F4DA
:10F6A0006CC09A3108F491C09B3109F45BC09D3164
:10F6B00009F033C29D81903359F48F81882311F46E
:10F6C0009EE11CC0813011F091E018C098E916C08D
:10F6D000892F807591F0903539F4E0E0F0E089E011
:10F6E0008093570094910AC0983539F4E3E0F0E034
:10F6F00089E080935700949101C090E01A821B82A8
:10F700008D818C831D829E831F8227E030E009C299
:10F710001A8288E08B8381E48C8386E58D8382E581
:10F720008E8389E48F8383E5888780E589878FE5E9
:10F730008A8782E38B872BE030E0F3C18A818139AD
:10F7400041F0823941F0803911F48FE005C080E04A
:10F7500003C082E001C08AE01A828B8344C0772410
:10F76000739482C08D81882311F48EE12CC0813086
:10F7700011F081E028C088E926C01A82E1E0F0E0BB
:10F7800089E08093570084918B831C8224E030E0D1
:10F79000C8C18B81803589F48C81883039F4E2E0EE
:10F7A000F0E089E08093570084910DC0E0E0F0E044
:10F7B00089E080935700849106C0E3E0F0E089E09F
:10F7C0008093570084911A82DFCF8D81836C99E0FA
:10F7D000E1E0F0E0082E90935700E89507B600FCB2
:10F7E000FDCF1A821B8223E030E09BC180EC8A832C
:10F7F000CE5CDE4F188219821A821B82C253D1401E
:10F800008EC18A8190E0A0E0B0E0582F44273327D2
:10F8100022278B8190E0A0E0B0E0DC0199278827C7
:10F82000282B392B4A2B5B2B8D8190E0A0E0B0E098
:10F83000282B392B4A2B5B2B8C8190E0A0E0B0E089
:10F84000BA2FA92F982F8827282B392B4A2B5B2BCF
:10F85000220F331F441F551FC05EDE4F288339839C
:10F860004A835B83C052D1401A8259C13A81C95C34
:10F87000DE4F3883C753D140CA5CDE4F1882C6536F
:10F88000D1408B81C82EDD24CA5CDE4F488159816E
:10F89000C653D140C42AD52A933109F082C0CE5C28
:10F8A000DE4F88819981AA81BB81C253D1408050AB
:10F8B000904CA340B04030F583E0CE5CDE4FE88052
:10F8C000F9800A811B81C253D140F70100935B008C
:10F8D00080935700E89507B600FCFDCFCE5CDE4F65
:10F8E000088119812A813B81C253D14000501F4FAA
:10F8F0002F4F3F4FCE5CDE4F088319832A833B8313
:10F90000C253D140C05EDE4F488159816A817B81FC
:10F91000C052D140DE011B9631E08C9111962C91A2
:10F9200011971296C75CDE4F2883C953D140C85C3B
:10F93000DE4F1882C853D14090E0C85CDE4FE881AA
:10F94000F981C853D1408E2B9F2B0C01FA01609393
:10F950005B0030935700E89511244E5F5F4F6F4F67
:10F960007F4F0EEFE02E0FEFF02ECE0CDF1CC114F8
:10F97000D10499F685E0C05EDE4F088119812A81A5
:10F980003B81C052D140F80120935B008093570027
:10F99000E89507B600FCFDCF81E180935700E8951C
:10F9A00035C0C05EDE4F88819981AA81BB81C0527B
:10F9B000D140B695A795979587957C018601ABE0D8
:10F9C000AA2EB12CAC0EBD1E0BC0D5016D915D01F0
:10F9D000C7010F947FFE0894E11CF11C01501040F8
:10F9E0000115110591F7A60160E070E0440F551F65
:10F9F000661F771FC05EDE4FE880F9800A811B8199
:10FA0000C052D1404E0D5F1D601F711F1A82C05E33
:10FA1000DE4F488359836A837B83C052D1407FC0C5
:10FA2000FA80C55CDE4FF882CB53D140C65CDE4F16
:10FA30001882CA53D1408B81C82EDD24C65CDE4FAC
:10FA400008811981CA53D140C02AD12A1A828981DA
:10FA5000BE016D5F7F4F843121F59601C05EDE4FA0
:10FA6000E880F9800A811B81C052D1400BBFF701A9
:10FA700087919691DB018C9311969C936E5F7F4FDB
:10FA8000D801C7010296A11DB11DC05EDE4F88835B
:10FA90009983AA83BB83C052D14022503040F1F6F3
:10FAA00036C0C05EDE4F288139814A815B81C052F9
:10FAB000D1400894C108D108760100E010E0089414
:10FAC000C11CD11C0894E11CF11C011D111DE20E8A
:10FAD000F31E041F151F21BDBB27A52F942F832FB5
:10FAE00082BD2F5F3F4F4F4F5F4FF89A80B5DB01CC
:10FAF0008D93BD012E153F054007510761F7C05E8C
:10FB0000DE4F288339834A835B83C052D1409601FC
:10FB10002D5F3F4FFB01108204C080EC8A8322E0FE
:10FB200030E08BE18093C6008091C00086FFFCCF5F
:10FB30008091C00080648093C000C15DDE4FF88179
:10FB4000CF52D140F093C6008091C00086FFFCCF19
:10FB50008091C00080648093C000432F3093C60022
:10FB60008091C00086FFFCCF8091C00080648093AC
:10FB7000C000922F2093C6008091C00086FFFCCF6A
:10FB80008091C00080648093C0008EE08093C600A6
:10FB90008091C00086FFFCCF8091C000806480937C
:10FBA000C00065E1C15DDE4FE880CF52D1406E25D7
:10FBB00069276427FE01319610C090819093C6009A
:10FBC0008091C00086FFFCCF31968091C000806498
:10FBD0008093C0006927215030402115310569F715
:10FBE0006093C6008091C00086FFFCCF8091C0006A
:10FBF00080648093C00085B1805885B9772081F4F6
:10FC0000C15DDE4F0881CF52D1400F5FC15DDE4F35
:10FC10000883CF52D14090E0A0E0B0E00D941AF4F8
:10FC200027982F9880E090E020ED37E0F901319798
:10FC3000F1F7019684369105C9F700008091C00064
:10FC40008D7F8093C00081E180935700E895EE2777
:10FC5000FF270994FFCF90E00D941AF497FB092E2B
:10FC600007260AD077FD04D02ED006D000201AF443
:10FC7000709561957F4F0895F6F7909581959F4F08
:10FC80000895A1E21A2EAA1BBB1BFD010DC0AA1FDD
:10FC9000BB1FEE1FFF1FA217B307E407F50720F0F5
:10FCA000A21BB30BE40BF50B661F771F881F991F70
:10FCB0001A9469F760957095809590959B01AC01B9
:10FCC000BD01CF010895AA1BBB1B51E107C0AA1FAC
:10FCD000BB1FA617B70710F0A61BB70B881F991FED
:10FCE0005A95A9F780959095BC01CD010895F99991
:10FCF000FECF92BD81BDF89A992780B50895262F31
:10FD0000F999FECF1FBA92BD81BD20BD0FB6F89400
:0EFD1000FA9AF99A0FBE01960895F894FFCF63
:040000033000E000E9
:00000001FF
